:020000040000FA
:04000000BAEF00F063
:020004000000FA
:020008001100E5
:080018001100700ED36E400EC2
:100020009B6E1200D00E216EFF0E226E222E16EF56
:1000300000F0212E14EF00F01200C168956A8C6A5E
:100040009368F19E206A120081A02DEC00F081A23D
:1000500040EC00F081A40000120012EC00F02050EF
:10006000D8A437EF00F0020E206E38EF00F0200623
:1000700053EC00F081A03AEF00F012EC00F0120017
:1000800012EC00F0020E205CD8B44AEF00F0202AF7
:100090004BEF00F0206A53EC00F081A24DEF00F02E
:1000A00012EC00F01200010E205CD8A065EF00F009
:1000B000D8B461EF00F05DEF00F08C888C8A8C9CE6
:1000C00012008C888C9A8C8C12008C888C8A8C8C78
:1000D00012008C90000EF86E020EF76E000EF66E97
:1000E00073EC00F01200000EEA6E600EE96EC00EB6
:1000F000246E0900F5CFEEFF242E79EF00F01200F8
:10010000000EEA6E600EE96EC00E246EEECF23F094
:10011000A8EC00F0242E86EF00F0B0EC00F0120006
:100120008C8023AE9DEF00F0000000000000000076
:100130008C9000000000A6EF00F000008C90000002
:100140000000000000000000A6EF00F023461200AF
:10015000080E246E90EC00F0242EAAEF00F012009E
:100160008C90C80E276E000000000000272EB3EF11
:1001700000F012000DEC00F01DEC00F053EC00F06C
:0801800024EC00F0C0EF00F0D8
:10020000404040404040404040404040404040002E
:10021000404040000000000000000000404040005E
:10022000404040000000000000000000404040004E
:10023000404040000000000000000000404040003E
:1002400040404040404040404040404040404000EE
:020000040030CA
:0100010008F6
:010003001EDE
:0100050001F9
:00000001FF
